{
  "_format": "hh-sol-artifact-1",
  "contractName": "SettlementEngine",
  "sourceName": "contracts/Escrow/SettlementEngine.sol",
  "abi": [
    {
      "inputs": [
        {
          "internalType": "address",
          "name": "_factory",
          "type": "address"
        },
        {
          "internalType": "address",
          "name": "_permit2",
          "type": "address"
        }
      ],
      "stateMutability": "nonpayable",
      "type": "constructor"
    },
    {
      "inputs": [],
      "name": "EscrowCreationFailed",
      "type": "error"
    },
    {
      "inputs": [],
      "name": "EscrowNotFound",
      "type": "error"
    },
    {
      "inputs": [],
      "name": "InsufficientAllowance",
      "type": "error"
    },
    {
      "inputs": [],
      "name": "InvalidAddress",
      "type": "error"
    },
    {
      "inputs": [],
      "name": "InvalidAmount",
      "type": "error"
    },
    {
      "inputs": [],
      "name": "InvalidPermitData",
      "type": "error"
    },
    {
      "inputs": [],
      "name": "InvalidTimeLocks",
      "type": "error"
    },
    {
      "inputs": [
        {
          "internalType": "address",
          "name": "owner",
          "type": "address"
        }
      ],
      "name": "OwnableInvalidOwner",
      "type": "error"
    },
    {
      "inputs": [
        {
          "internalType": "address",
          "name": "account",
          "type": "address"
        }
      ],
      "name": "OwnableUnauthorizedAccount",
      "type": "error"
    },
    {
      "inputs": [],
      "name": "ReentrancyGuardReentrantCall",
      "type": "error"
    },
    {
      "anonymous": false,
      "inputs": [
        {
          "indexed": true,
          "internalType": "bytes32",
          "name": "orderHash",
          "type": "bytes32"
        },
        {
          "indexed": true,
          "internalType": "address",
          "name": "escrow",
          "type": "address"
        },
        {
          "indexed": true,
          "internalType": "address",
          "name": "resolver",
          "type": "address"
        },
        {
          "indexed": false,
          "internalType": "address",
          "name": "token",
          "type": "address"
        },
        {
          "indexed": false,
          "internalType": "address",
          "name": "maker",
          "type": "address"
        },
        {
          "indexed": false,
          "internalType": "address",
          "name": "taker",
          "type": "address"
        },
        {
          "indexed": false,
          "internalType": "uint256",
          "name": "safetyDeposit",
          "type": "uint256"
        },
        {
          "indexed": false,
          "internalType": "uint256[3]",
          "name": "timeLocks",
          "type": "uint256[3]"
        },
        {
          "indexed": false,
          "internalType": "uint256",
          "name": "amount",
          "type": "uint256"
        }
      ],
      "name": "EscrowCreated",
      "type": "event"
    },
    {
      "anonymous": false,
      "inputs": [
        {
          "indexed": true,
          "internalType": "bytes32",
          "name": "orderHash",
          "type": "bytes32"
        },
        {
          "indexed": true,
          "internalType": "address",
          "name": "escrow",
          "type": "address"
        },
        {
          "indexed": true,
          "internalType": "address",
          "name": "maker",
          "type": "address"
        }
      ],
      "name": "EscrowRecovered",
      "type": "event"
    },
    {
      "anonymous": false,
      "inputs": [
        {
          "indexed": true,
          "internalType": "bytes32",
          "name": "orderHash",
          "type": "bytes32"
        },
        {
          "indexed": true,
          "internalType": "address",
          "name": "escrow",
          "type": "address"
        },
        {
          "indexed": true,
          "internalType": "address",
          "name": "taker",
          "type": "address"
        }
      ],
      "name": "EscrowSettled",
      "type": "event"
    },
    {
      "anonymous": false,
      "inputs": [
        {
          "indexed": true,
          "internalType": "address",
          "name": "previousOwner",
          "type": "address"
        },
        {
          "indexed": true,
          "internalType": "address",
          "name": "newOwner",
          "type": "address"
        }
      ],
      "name": "OwnershipTransferred",
      "type": "event"
    },
    {
      "inputs": [],
      "name": "FACTORY",
      "outputs": [
        {
          "internalType": "contract IHTLCEscrowFactory",
          "name": "",
          "type": "address"
        }
      ],
      "stateMutability": "view",
      "type": "function"
    },
    {
      "inputs": [],
      "name": "PERMIT2",
      "outputs": [
        {
          "internalType": "address",
          "name": "",
          "type": "address"
        }
      ],
      "stateMutability": "view",
      "type": "function"
    },
    {
      "inputs": [
        {
          "internalType": "bytes32",
          "name": "_orderHash",
          "type": "bytes32"
        },
        {
          "internalType": "bytes32",
          "name": "_hashLock",
          "type": "bytes32"
        },
        {
          "internalType": "address",
          "name": "_token",
          "type": "address"
        },
        {
          "internalType": "address",
          "name": "_maker",
          "type": "address"
        },
        {
          "internalType": "address",
          "name": "_taker",
          "type": "address"
        },
        {
          "internalType": "address",
          "name": "_resolver",
          "type": "address"
        },
        {
          "internalType": "uint256",
          "name": "_amount",
          "type": "uint256"
        },
        {
          "internalType": "uint256",
          "name": "_safetyDeposit",
          "type": "uint256"
        },
        {
          "internalType": "uint256[3]",
          "name": "_timeLocks",
          "type": "uint256[3]"
        },
        {
          "internalType": "bytes",
          "name": "_permitData",
          "type": "bytes"
        }
      ],
      "name": "createEscrow",
      "outputs": [
        {
          "internalType": "address",
          "name": "escrow",
          "type": "address"
        }
      ],
      "stateMutability": "payable",
      "type": "function"
    },
    {
      "inputs": [
        {
          "internalType": "bytes32",
          "name": "_orderHash",
          "type": "bytes32"
        }
      ],
      "name": "escrowExists",
      "outputs": [
        {
          "internalType": "bool",
          "name": "",
          "type": "bool"
        }
      ],
      "stateMutability": "view",
      "type": "function"
    },
    {
      "inputs": [
        {
          "internalType": "bytes32",
          "name": "_orderHash",
          "type": "bytes32"
        }
      ],
      "name": "getEscrow",
      "outputs": [
        {
          "internalType": "address",
          "name": "",
          "type": "address"
        }
      ],
      "stateMutability": "view",
      "type": "function"
    },
    {
      "inputs": [
        {
          "internalType": "bytes32",
          "name": "_orderHash",
          "type": "bytes32"
        }
      ],
      "name": "getEscrowState",
      "outputs": [
        {
          "internalType": "enum IHTLCEscrow.State",
          "name": "",
          "type": "uint8"
        }
      ],
      "stateMutability": "view",
      "type": "function"
    },
    {
      "inputs": [],
      "name": "owner",
      "outputs": [
        {
          "internalType": "address",
          "name": "",
          "type": "address"
        }
      ],
      "stateMutability": "view",
      "type": "function"
    },
    {
      "inputs": [
        {
          "internalType": "bytes32",
          "name": "_orderHash",
          "type": "bytes32"
        }
      ],
      "name": "recover",
      "outputs": [],
      "stateMutability": "nonpayable",
      "type": "function"
    },
    {
      "inputs": [],
      "name": "renounceOwnership",
      "outputs": [],
      "stateMutability": "nonpayable",
      "type": "function"
    },
    {
      "inputs": [
        {
          "internalType": "bytes32",
          "name": "_orderHash",
          "type": "bytes32"
        },
        {
          "internalType": "bytes32",
          "name": "_preimage",
          "type": "bytes32"
        }
      ],
      "name": "settle",
      "outputs": [],
      "stateMutability": "nonpayable",
      "type": "function"
    },
    {
      "inputs": [
        {
          "internalType": "address",
          "name": "newOwner",
          "type": "address"
        }
      ],
      "name": "transferOwnership",
      "outputs": [],
      "stateMutability": "nonpayable",
      "type": "function"
    }
  ],
  "bytecode": "0x60c060405234801561001057600080fd5b50604051612286380380612286833981810160405281019061003291906102f3565b336001600081905550600073ffffffffffffffffffffffffffffffffffffffff168173ffffffffffffffffffffffffffffffffffffffff16036100ad5760006040517f1e4fbdf70000000000000000000000000000000000000000000000000000000081526004016100a49190610342565b60405180910390fd5b6100bc816101ca60201b60201c565b50600073ffffffffffffffffffffffffffffffffffffffff168273ffffffffffffffffffffffffffffffffffffffff1614806101245750600073ffffffffffffffffffffffffffffffffffffffff168173ffffffffffffffffffffffffffffffffffffffff16145b1561015b576040517fe6c4247b00000000000000000000000000000000000000000000000000000000815260040160405180910390fd5b8173ffffffffffffffffffffffffffffffffffffffff1660808173ffffffffffffffffffffffffffffffffffffffff16815250508073ffffffffffffffffffffffffffffffffffffffff1660a08173ffffffffffffffffffffffffffffffffffffffff1681525050505061035d565b6000600160009054906101000a900473ffffffffffffffffffffffffffffffffffffffff16905081600160006101000a81548173ffffffffffffffffffffffffffffffffffffffff021916908373ffffffffffffffffffffffffffffffffffffffff1602179055508173ffffffffffffffffffffffffffffffffffffffff168173ffffffffffffffffffffffffffffffffffffffff167f8be0079c531659141344cd1fd0a4f28419497f9722a3daafe3b4186f6b6457e060405160405180910390a35050565b600080fd5b600073ffffffffffffffffffffffffffffffffffffffff82169050919050565b60006102c082610295565b9050919050565b6102d0816102b5565b81146102db57600080fd5b50565b6000815190506102ed816102c7565b92915050565b6000806040838503121561030a57610309610290565b5b6000610318858286016102de565b9250506020610329858286016102de565b9150509250929050565b61033c816102b5565b82525050565b60006020820190506103576000830184610333565b92915050565b60805160a051611eb76103cf600039600081816102c101526111f201526000818161029d015281816102fb015281816105be0152818161065a01528181610739015281816108d8015281816109f501528181610a9101528181610c3201528181610cce0152610e730152611eb76000f3fe60806040526004361061009c5760003560e01c8063c81fadb011610064578063c81fadb014610176578063cb80bdf3146101a6578063d071f7b1146101e3578063d32a9cd91461020c578063f023b81114610235578063f2fde38b146102725761009c565b80632dd31000146100a15780636afdd850146100cc578063715018a6146100f75780637835ba331461010e5780638da5cb5b1461014b575b600080fd5b3480156100ad57600080fd5b506100b661029b565b6040516100c39190611346565b60405180910390f35b3480156100d857600080fd5b506100e16102bf565b6040516100ee9190611382565b60405180910390f35b34801561010357600080fd5b5061010c6102e3565b005b34801561011a57600080fd5b50610135600480360381019061013091906113e7565b6102f7565b604051610142919061142f565b60405180910390f35b34801561015757600080fd5b5061016061039a565b60405161016d9190611382565b60405180910390f35b610190600480360381019061018b919061164e565b6103c4565b60405161019d9190611382565b60405180910390f35b3480156101b257600080fd5b506101cd60048036038101906101c891906113e7565b6108d3565b6040516101da91906117c5565b60405180910390f35b3480156101ef57600080fd5b5061020a600480360381019061020591906113e7565b6109e9565b005b34801561021857600080fd5b50610233600480360381019061022e91906117e0565b610c26565b005b34801561024157600080fd5b5061025c600480360381019061025791906113e7565b610e6f565b6040516102699190611382565b60405180910390f35b34801561027e57600080fd5b5061029960048036038101906102949190611820565b610f12565b005b7f000000000000000000000000000000000000000000000000000000000000000081565b7f000000000000000000000000000000000000000000000000000000000000000081565b6102eb610f98565b6102f5600061101f565b565b60007f000000000000000000000000000000000000000000000000000000000000000073ffffffffffffffffffffffffffffffffffffffff16637835ba33836040518263ffffffff1660e01b8152600401610352919061185c565b602060405180830381865afa15801561036f573d6000803e3d6000fd5b505050506040513d601f19601f8201168201806040525081019061039391906118a3565b9050919050565b6000600160009054906101000a900473ffffffffffffffffffffffffffffffffffffffff16905090565b60006103ce6110e5565b600073ffffffffffffffffffffffffffffffffffffffff168a73ffffffffffffffffffffffffffffffffffffffff1614806104355750600073ffffffffffffffffffffffffffffffffffffffff168973ffffffffffffffffffffffffffffffffffffffff16145b8061046c5750600073ffffffffffffffffffffffffffffffffffffffff168873ffffffffffffffffffffffffffffffffffffffff16145b806104a35750600073ffffffffffffffffffffffffffffffffffffffff168773ffffffffffffffffffffffffffffffffffffffff16145b156104da576040517fe6c4247b00000000000000000000000000000000000000000000000000000000815260040160405180910390fd5b60008603610514576040517f2c5211c600000000000000000000000000000000000000000000000000000000815260040160405180910390fd5b83600060038110610528576105276118d0565b5b602002015184600160038110610541576105406118d0565b5b6020020151111580610583575083600060038110610562576105616118d0565b5b60200201518460026003811061057b5761057a6118d0565b5b602002015111155b156105ba576040517f983bc3ff00000000000000000000000000000000000000000000000000000000815260040160405180910390fd5b60007f000000000000000000000000000000000000000000000000000000000000000073ffffffffffffffffffffffffffffffffffffffff1663f023b8118e6040518263ffffffff1660e01b8152600401610615919061185c565b602060405180830381865afa158015610632573d6000803e3d6000fd5b505050506040513d601f19601f820116820180604052508101906106569190611914565b90507f000000000000000000000000000000000000000000000000000000000000000073ffffffffffffffffffffffffffffffffffffffff16637835ba338e6040518263ffffffff1660e01b81526004016106b1919061185c565b602060405180830381865afa1580156106ce573d6000803e3d6000fd5b505050506040513d601f19601f820116820180604052508101906106f291906118a3565b15610729576040517faaa42ce700000000000000000000000000000000000000000000000000000000815260040160405180910390fd5b6107378b8b838a888861112b565b7f000000000000000000000000000000000000000000000000000000000000000073ffffffffffffffffffffffffffffffffffffffff16639bf0b006348f8f8f8f8f8f8f8f8f6040518b63ffffffff1660e01b81526004016107a1999897969594939291906119fb565b60206040518083038185885af11580156107bf573d6000803e3d6000fd5b50505050506040513d601f19601f820116820180604052508101906107e49190611914565b91508073ffffffffffffffffffffffffffffffffffffffff168273ffffffffffffffffffffffffffffffffffffffff161461084b576040517faaa42ce700000000000000000000000000000000000000000000000000000000815260040160405180910390fd5b8773ffffffffffffffffffffffffffffffffffffffff168273ffffffffffffffffffffffffffffffffffffffff168e7f80a61f47e860583d5b23a84a46bb5c59a803686bd1a3dcc0230067f7abb71f2a8e8e8e8c8c8f6040516108b396959493929190611a88565b60405180910390a4506108c46112b5565b9b9a5050505050505050505050565b6000807f000000000000000000000000000000000000000000000000000000000000000073ffffffffffffffffffffffffffffffffffffffff1663f023b811846040518263ffffffff1660e01b815260040161092f919061185c565b602060405180830381865afa15801561094c573d6000803e3d6000fd5b505050506040513d601f19601f820116820180604052508101906109709190611914565b90508073ffffffffffffffffffffffffffffffffffffffff16631865c57d6040518163ffffffff1660e01b8152600401602060405180830381865afa1580156109bd573d6000803e3d6000fd5b505050506040513d601f19601f820116820180604052508101906109e19190611b0f565b915050919050565b6109f16110e5565b60007f000000000000000000000000000000000000000000000000000000000000000073ffffffffffffffffffffffffffffffffffffffff1663f023b811836040518263ffffffff1660e01b8152600401610a4c919061185c565b602060405180830381865afa158015610a69573d6000803e3d6000fd5b505050506040513d601f19601f82011682018060405250810190610a8d9190611914565b90507f000000000000000000000000000000000000000000000000000000000000000073ffffffffffffffffffffffffffffffffffffffff16637835ba33836040518263ffffffff1660e01b8152600401610ae8919061185c565b602060405180830381865afa158015610b05573d6000803e3d6000fd5b505050506040513d601f19601f82011682018060405250810190610b2991906118a3565b610b5f576040517ff1d80ab100000000000000000000000000000000000000000000000000000000815260040160405180910390fd5b8073ffffffffffffffffffffffffffffffffffffffff1663ea8a1af06040518163ffffffff1660e01b8152600401600060405180830381600087803b158015610ba757600080fd5b505af1158015610bbb573d6000803e3d6000fd5b505050503373ffffffffffffffffffffffffffffffffffffffff168173ffffffffffffffffffffffffffffffffffffffff16837f0f0fb0a4c88d3e9a4a24cacc468d65d9c1ae31321c6372715aa3a54f7b891b7860405160405180910390a450610c236112b5565b50565b610c2e6110e5565b60007f000000000000000000000000000000000000000000000000000000000000000073ffffffffffffffffffffffffffffffffffffffff1663f023b811846040518263ffffffff1660e01b8152600401610c89919061185c565b602060405180830381865afa158015610ca6573d6000803e3d6000fd5b505050506040513d601f19601f82011682018060405250810190610cca9190611914565b90507f000000000000000000000000000000000000000000000000000000000000000073ffffffffffffffffffffffffffffffffffffffff16637835ba33846040518263ffffffff1660e01b8152600401610d25919061185c565b602060405180830381865afa158015610d42573d6000803e3d6000fd5b505050506040513d601f19601f82011682018060405250810190610d6691906118a3565b610d9c576040517ff1d80ab100000000000000000000000000000000000000000000000000000000815260040160405180910390fd5b8073ffffffffffffffffffffffffffffffffffffffff16638e19899e836040518263ffffffff1660e01b8152600401610dd5919061185c565b600060405180830381600087803b158015610def57600080fd5b505af1158015610e03573d6000803e3d6000fd5b505050503373ffffffffffffffffffffffffffffffffffffffff168173ffffffffffffffffffffffffffffffffffffffff16847f223d3df6f6172410e9a8f5d7a2ee43102710400ebced7adea124c58b1b2b204060405160405180910390a450610e6b6112b5565b5050565b60007f000000000000000000000000000000000000000000000000000000000000000073ffffffffffffffffffffffffffffffffffffffff1663f023b811836040518263ffffffff1660e01b8152600401610eca919061185c565b602060405180830381865afa158015610ee7573d6000803e3d6000fd5b505050506040513d601f19601f82011682018060405250810190610f0b9190611914565b9050919050565b610f1a610f98565b600073ffffffffffffffffffffffffffffffffffffffff168173ffffffffffffffffffffffffffffffffffffffff1603610f8c5760006040517f1e4fbdf7000000000000000000000000000000000000000000000000000000008152600401610f839190611382565b60405180910390fd5b610f958161101f565b50565b610fa06112bf565b73ffffffffffffffffffffffffffffffffffffffff16610fbe61039a565b73ffffffffffffffffffffffffffffffffffffffff161461101d57610fe16112bf565b6040517f118cdaa70000000000000000000000000000000000000000000000000000000081526004016110149190611382565b60405180910390fd5b565b6000600160009054906101000a900473ffffffffffffffffffffffffffffffffffffffff16905081600160006101000a81548173ffffffffffffffffffffffffffffffffffffffff021916908373ffffffffffffffffffffffffffffffffffffffff1602179055508173ffffffffffffffffffffffffffffffffffffffff168173ffffffffffffffffffffffffffffffffffffffff167f8be0079c531659141344cd1fd0a4f28419497f9722a3daafe3b4186f6b6457e060405160405180910390a35050565b600260005403611121576040517f3ee5aeb500000000000000000000000000000000000000000000000000000000815260040160405180910390fd5b6002600081905550565b600080838381019061113d9190611caa565b915091508773ffffffffffffffffffffffffffffffffffffffff1682600001516000015173ffffffffffffffffffffffffffffffffffffffff16146111ae576040517fd57b995a00000000000000000000000000000000000000000000000000000000815260040160405180910390fd5b8482600001516020015110156111f0576040517f13be252b00000000000000000000000000000000000000000000000000000000815260040160405180910390fd5b7f000000000000000000000000000000000000000000000000000000000000000073ffffffffffffffffffffffffffffffffffffffff166330f28b7a8360405180604001604052808a73ffffffffffffffffffffffffffffffffffffffff168152602001898152508a856040518563ffffffff1660e01b81526004016112799493929190611e34565b600060405180830381600087803b15801561129357600080fd5b505af11580156112a7573d6000803e3d6000fd5b505050505050505050505050565b6001600081905550565b600033905090565b600073ffffffffffffffffffffffffffffffffffffffff82169050919050565b6000819050919050565b600061130c611307611302846112c7565b6112e7565b6112c7565b9050919050565b600061131e826112f1565b9050919050565b600061133082611313565b9050919050565b61134081611325565b82525050565b600060208201905061135b6000830184611337565b92915050565b600061136c826112c7565b9050919050565b61137c81611361565b82525050565b60006020820190506113976000830184611373565b92915050565b6000604051905090565b600080fd5b600080fd5b6000819050919050565b6113c4816113b1565b81146113cf57600080fd5b50565b6000813590506113e1816113bb565b92915050565b6000602082840312156113fd576113fc6113a7565b5b600061140b848285016113d2565b91505092915050565b60008115159050919050565b61142981611414565b82525050565b60006020820190506114446000830184611420565b92915050565b61145381611361565b811461145e57600080fd5b50565b6000813590506114708161144a565b92915050565b6000819050919050565b61148981611476565b811461149457600080fd5b50565b6000813590506114a681611480565b92915050565b600080fd5b6000601f19601f8301169050919050565b7f4e487b7100000000000000000000000000000000000000000000000000000000600052604160045260246000fd5b6114fa826114b1565b810181811067ffffffffffffffff82111715611519576115186114c2565b5b80604052505050565b600061152c61139d565b905061153882826114f1565b919050565b600067ffffffffffffffff821115611558576115576114c2565b5b602082029050919050565b600080fd5b600061157b6115768461153d565b611522565b9050806020840283018581111561159557611594611563565b5b835b818110156115be57806115aa8882611497565b845260208401935050602081019050611597565b5050509392505050565b600082601f8301126115dd576115dc6114ac565b5b60036115ea848285611568565b91505092915050565b600080fd5b60008083601f84011261160e5761160d6114ac565b5b8235905067ffffffffffffffff81111561162b5761162a6115f3565b5b60208301915083600182028301111561164757611646611563565b5b9250929050565b60008060008060008060008060008060006101808c8e031215611674576116736113a7565b5b60006116828e828f016113d2565b9b505060206116938e828f016113d2565b9a505060406116a48e828f01611461565b99505060606116b58e828f01611461565b98505060806116c68e828f01611461565b97505060a06116d78e828f01611461565b96505060c06116e88e828f01611497565b95505060e06116f98e828f01611497565b94505061010061170b8e828f016115c8565b9350506101608c013567ffffffffffffffff81111561172d5761172c6113ac565b5b6117398e828f016115f8565b92509250509295989b509295989b9093969950565b7f4e487b7100000000000000000000000000000000000000000000000000000000600052602160045260246000fd5b6003811061178e5761178d61174e565b5b50565b600081905061179f8261177d565b919050565b60006117af82611791565b9050919050565b6117bf816117a4565b82525050565b60006020820190506117da60008301846117b6565b92915050565b600080604083850312156117f7576117f66113a7565b5b6000611805858286016113d2565b9250506020611816858286016113d2565b9150509250929050565b600060208284031215611836576118356113a7565b5b600061184484828501611461565b91505092915050565b611856816113b1565b82525050565b6000602082019050611871600083018461184d565b92915050565b61188081611414565b811461188b57600080fd5b50565b60008151905061189d81611877565b92915050565b6000602082840312156118b9576118b86113a7565b5b60006118c78482850161188e565b91505092915050565b7f4e487b7100000000000000000000000000000000000000000000000000000000600052603260045260246000fd5b60008151905061190e8161144a565b92915050565b60006020828403121561192a576119296113a7565b5b6000611938848285016118ff565b91505092915050565b61194a81611476565b82525050565b600060039050919050565b600081905092915050565b6000819050919050565b61197981611476565b82525050565b600061198b8383611970565b60208301905092915050565b6000602082019050919050565b6119ad81611950565b6119b7818461195b565b92506119c282611966565b8060005b838110156119f35781516119da878261197f565b96506119e583611997565b9250506001810190506119c6565b505050505050565b600061016082019050611a11600083018c61184d565b611a1e602083018b61184d565b611a2b604083018a611373565b611a386060830189611373565b611a456080830188611373565b611a5260a0830187611373565b611a5f60c0830186611941565b611a6c60e0830185611941565b611a7a6101008301846119a4565b9a9950505050505050505050565b600061010082019050611a9e6000830189611373565b611aab6020830188611373565b611ab86040830187611373565b611ac56060830186611941565b611ad260808301856119a4565b611adf60e0830184611941565b979650505050505050565b60038110611af757600080fd5b50565b600081519050611b0981611aea565b92915050565b600060208284031215611b2557611b246113a7565b5b6000611b3384828501611afa565b91505092915050565b600080fd5b600060408284031215611b5757611b56611b3c565b5b611b616040611522565b90506000611b7184828501611461565b6000830152506020611b8584828501611497565b60208301525092915050565b600060808284031215611ba757611ba6611b3c565b5b611bb16060611522565b90506000611bc184828501611b41565b6000830152506040611bd584828501611497565b6020830152506060611be984828501611497565b60408301525092915050565b600080fd5b600067ffffffffffffffff821115611c1557611c146114c2565b5b611c1e826114b1565b9050602081019050919050565b82818337600083830152505050565b6000611c4d611c4884611bfa565b611522565b905082815260208101848484011115611c6957611c68611bf5565b5b611c74848285611c2b565b509392505050565b600082601f830112611c9157611c906114ac565b5b8135611ca1848260208601611c3a565b91505092915050565b60008060a08385031215611cc157611cc06113a7565b5b6000611ccf85828601611b91565b925050608083013567ffffffffffffffff811115611cf057611cef6113ac565b5b611cfc85828601611c7c565b9150509250929050565b611d0f81611361565b82525050565b604082016000820151611d2b6000850182611d06565b506020820151611d3e6020850182611970565b50505050565b608082016000820151611d5a6000850182611d15565b506020820151611d6d6040850182611970565b506040820151611d806060850182611970565b50505050565b604082016000820151611d9c6000850182611d06565b506020820151611daf6020850182611970565b50505050565b600081519050919050565b600082825260208201905092915050565b60005b83811015611def578082015181840152602081019050611dd4565b60008484015250505050565b6000611e0682611db5565b611e108185611dc0565b9350611e20818560208601611dd1565b611e29816114b1565b840191505092915050565b600061010082019050611e4a6000830187611d44565b611e576080830186611d86565b611e6460c0830185611373565b81810360e0830152611e768184611dfb565b90509594505050505056fea2646970667358221220a9c7efbd41c670bff47a57450b9d5c6e8d9040bb86f079068a604fd873abd04a64736f6c634300081c0033",
  "linkReferences": {},
  "deployedLinkReferences": {}
}