{
  "_format": "hh-sol-artifact-1",
  "contractName": "HTLCEscrow",
  "sourceName": "contracts/Escrow/HTLCEscrow.sol",
  "abi": [
    {
      "inputs": [],
      "stateMutability": "nonpayable",
      "type": "constructor"
    },
    {
      "inputs": [],
      "name": "AlreadyCancelled",
      "type": "error"
    },
    {
      "inputs": [],
      "name": "AlreadyWithdrawn",
      "type": "error"
    },
    {
      "inputs": [],
      "name": "InsufficientBalance",
      "type": "error"
    },
    {
      "inputs": [],
      "name": "InsufficientSafetyDeposit",
      "type": "error"
    },
    {
      "inputs": [],
      "name": "InvalidAddress",
      "type": "error"
    },
    {
      "inputs": [],
      "name": "InvalidAmount",
      "type": "error"
    },
    {
      "inputs": [],
      "name": "InvalidInitialization",
      "type": "error"
    },
    {
      "inputs": [],
      "name": "InvalidOrderHash",
      "type": "error"
    },
    {
      "inputs": [],
      "name": "InvalidSecret",
      "type": "error"
    },
    {
      "inputs": [],
      "name": "InvalidTimeLocks",
      "type": "error"
    },
    {
      "inputs": [],
      "name": "NotInitializing",
      "type": "error"
    },
    {
      "inputs": [],
      "name": "ReentrancyGuardReentrantCall",
      "type": "error"
    },
    {
      "inputs": [
        {
          "internalType": "address",
          "name": "token",
          "type": "address"
        }
      ],
      "name": "SafeERC20FailedOperation",
      "type": "error"
    },
    {
      "inputs": [],
      "name": "TimeLockActive",
      "type": "error"
    },
    {
      "anonymous": false,
      "inputs": [
        {
          "indexed": true,
          "internalType": "bytes32",
          "name": "orderHash",
          "type": "bytes32"
        },
        {
          "indexed": true,
          "internalType": "address",
          "name": "maker",
          "type": "address"
        },
        {
          "indexed": false,
          "internalType": "uint256",
          "name": "amount",
          "type": "uint256"
        }
      ],
      "name": "Cancelled",
      "type": "event"
    },
    {
      "anonymous": false,
      "inputs": [
        {
          "indexed": false,
          "internalType": "uint64",
          "name": "version",
          "type": "uint64"
        }
      ],
      "name": "Initialized",
      "type": "event"
    },
    {
      "anonymous": false,
      "inputs": [
        {
          "indexed": true,
          "internalType": "bytes32",
          "name": "orderHash",
          "type": "bytes32"
        },
        {
          "indexed": true,
          "internalType": "address",
          "name": "token",
          "type": "address"
        },
        {
          "indexed": true,
          "internalType": "address",
          "name": "maker",
          "type": "address"
        },
        {
          "indexed": false,
          "internalType": "address",
          "name": "taker",
          "type": "address"
        },
        {
          "indexed": false,
          "internalType": "uint256",
          "name": "amount",
          "type": "uint256"
        },
        {
          "indexed": false,
          "internalType": "uint256",
          "name": "safetyDeposit",
          "type": "uint256"
        }
      ],
      "name": "OrderCreated",
      "type": "event"
    },
    {
      "anonymous": false,
      "inputs": [
        {
          "indexed": true,
          "internalType": "bytes32",
          "name": "orderHash",
          "type": "bytes32"
        },
        {
          "indexed": true,
          "internalType": "address",
          "name": "taker",
          "type": "address"
        },
        {
          "indexed": false,
          "internalType": "uint256",
          "name": "amount",
          "type": "uint256"
        }
      ],
      "name": "Withdrawn",
      "type": "event"
    },
    {
      "inputs": [],
      "name": "cancel",
      "outputs": [],
      "stateMutability": "nonpayable",
      "type": "function"
    },
    {
      "inputs": [],
      "name": "getOrderDetails",
      "outputs": [
        {
          "internalType": "bytes32",
          "name": "orderHash",
          "type": "bytes32"
        },
        {
          "internalType": "address",
          "name": "token",
          "type": "address"
        },
        {
          "internalType": "address",
          "name": "maker",
          "type": "address"
        },
        {
          "internalType": "address",
          "name": "taker",
          "type": "address"
        },
        {
          "internalType": "address",
          "name": "resolver",
          "type": "address"
        },
        {
          "internalType": "uint256",
          "name": "amount",
          "type": "uint256"
        },
        {
          "internalType": "uint256",
          "name": "safetyDeposit",
          "type": "uint256"
        },
        {
          "internalType": "uint8",
          "name": "status",
          "type": "uint8"
        }
      ],
      "stateMutability": "view",
      "type": "function"
    },
    {
      "inputs": [],
      "name": "getState",
      "outputs": [
        {
          "internalType": "enum HTLCEscrow.State",
          "name": "",
          "type": "uint8"
        }
      ],
      "stateMutability": "view",
      "type": "function"
    },
    {
      "inputs": [
        {
          "internalType": "bytes32",
          "name": "_orderHash",
          "type": "bytes32"
        },
        {
          "internalType": "bytes32",
          "name": "_hashLock",
          "type": "bytes32"
        },
        {
          "internalType": "address",
          "name": "_token",
          "type": "address"
        },
        {
          "internalType": "address",
          "name": "_maker",
          "type": "address"
        },
        {
          "internalType": "address",
          "name": "_taker",
          "type": "address"
        },
        {
          "internalType": "address",
          "name": "_resolver",
          "type": "address"
        },
        {
          "internalType": "uint256",
          "name": "_amount",
          "type": "uint256"
        },
        {
          "internalType": "uint256",
          "name": "_safetyDeposit",
          "type": "uint256"
        },
        {
          "internalType": "uint256[3]",
          "name": "_timeLocks",
          "type": "uint256[3]"
        }
      ],
      "name": "initialize",
      "outputs": [],
      "stateMutability": "payable",
      "type": "function"
    },
    {
      "inputs": [],
      "name": "order",
      "outputs": [
        {
          "internalType": "bytes32",
          "name": "orderHash",
          "type": "bytes32"
        },
        {
          "internalType": "bytes32",
          "name": "hashLock",
          "type": "bytes32"
        },
        {
          "internalType": "address",
          "name": "token",
          "type": "address"
        },
        {
          "internalType": "address",
          "name": "maker",
          "type": "address"
        },
        {
          "internalType": "address",
          "name": "taker",
          "type": "address"
        },
        {
          "internalType": "address",
          "name": "resolver",
          "type": "address"
        },
        {
          "internalType": "uint256",
          "name": "amount",
          "type": "uint256"
        },
        {
          "internalType": "uint256",
          "name": "safetyDeposit",
          "type": "uint256"
        },
        {
          "internalType": "uint256",
          "name": "deployedAt",
          "type": "uint256"
        },
        {
          "internalType": "uint8",
          "name": "status",
          "type": "uint8"
        },
        {
          "internalType": "uint256",
          "name": "withdrawalTime",
          "type": "uint256"
        },
        {
          "internalType": "uint256",
          "name": "cancellationTime",
          "type": "uint256"
        }
      ],
      "stateMutability": "view",
      "type": "function"
    },
    {
      "inputs": [],
      "name": "version",
      "outputs": [
        {
          "internalType": "string",
          "name": "",
          "type": "string"
        }
      ],
      "stateMutability": "pure",
      "type": "function"
    },
    {
      "inputs": [
        {
          "internalType": "bytes32",
          "name": "_preimage",
          "type": "bytes32"
        }
      ],
      "name": "withdraw",
      "outputs": [],
      "stateMutability": "nonpayable",
      "type": "function"
    }
  ],
  "bytecode": "0x608060405234801561001057600080fd5b50600160008190555061002761002c60201b60201c565b6101b3565b600061003c61013060201b60201c565b90508060000160089054906101000a900460ff1615610087576040517ff92ee8a900000000000000000000000000000000000000000000000000000000815260040160405180910390fd5b67ffffffffffffffff80168160000160009054906101000a900467ffffffffffffffff1667ffffffffffffffff161461012d5767ffffffffffffffff8160000160006101000a81548167ffffffffffffffff021916908367ffffffffffffffff1602179055507fc7f505b2f371ae2175ee4913f4499e1f2633a7b5936321eed1cdaeb6115181d267ffffffffffffffff6040516101249190610198565b60405180910390a15b50565b60008061014161014a60201b60201c565b90508091505090565b60007ff0c57e16840df040f15088dc2f81fe391c3923bec73e23a9662efc9c229c6a0060001b905090565b600067ffffffffffffffff82169050919050565b61019281610175565b82525050565b60006020820190506101ad6000830184610189565b92915050565b611c2a806101c26000396000f3fe6080604052600436106100705760003560e01c80638e19899e1161004e5780638e19899e146100e7578063b4233e9f14610110578063bf15071d14610142578063ea8a1af01461017857610070565b80631865c57d1461007557806342d9fdd9146100a057806354fd4d50146100bc575b600080fd5b34801561008157600080fd5b5061008a61018f565b604051610097919061146e565b60405180910390f35b6100ba60048036038101906100b591906116a9565b6101e0565b005b3480156100c857600080fd5b506100d161097b565b6040516100de91906117f2565b60405180910390f35b3480156100f357600080fd5b5061010e60048036038101906101099190611814565b6109b8565b005b34801561011c57600080fd5b50610125610c82565b60405161013998979695949392919061188a565b60405180910390f35b34801561014e57600080fd5b50610157610e9f565b60405161016f9c9b9a99989796959493929190611908565b60405180910390f35b34801561018457600080fd5b5061018d610f7a565b005b600080600160090160009054906101000a900460ff169050600160ff168160ff16036101bf5760019150506101dd565b600260ff168160ff16036101d75760029150506101dd565b60009150505b90565b60006101ea6111b6565b905060008160000160089054906101000a900460ff1615905060008260000160009054906101000a900467ffffffffffffffff1690506000808267ffffffffffffffff161480156102385750825b9050600060018367ffffffffffffffff1614801561026d575060003073ffffffffffffffffffffffffffffffffffffffff163b145b90508115801561027b575080155b156102b2576040517ff92ee8a900000000000000000000000000000000000000000000000000000000815260040160405180910390fd5b60018560000160006101000a81548167ffffffffffffffff021916908367ffffffffffffffff16021790555083156103025760018560000160086101000a81548160ff0219169083151502179055505b600073ffffffffffffffffffffffffffffffffffffffff168c73ffffffffffffffffffffffffffffffffffffffff1614806103695750600073ffffffffffffffffffffffffffffffffffffffff168b73ffffffffffffffffffffffffffffffffffffffff16145b806103a05750600073ffffffffffffffffffffffffffffffffffffffff168a73ffffffffffffffffffffffffffffffffffffffff16145b806103d75750600073ffffffffffffffffffffffffffffffffffffffff168973ffffffffffffffffffffffffffffffffffffffff16145b1561040e576040517fe6c4247b00000000000000000000000000000000000000000000000000000000815260040160405180910390fd5b60008803610448576040517f2c5211c600000000000000000000000000000000000000000000000000000000815260040160405180910390fd5b86341015610482576040517fa946638f00000000000000000000000000000000000000000000000000000000815260040160405180910390fd5b85600060038110610496576104956119c2565b5b6020020151866001600381106104af576104ae6119c2565b5b60200201511115806104f15750856000600381106104d0576104cf6119c2565b5b6020020151866002600381106104e9576104e86119c2565b5b602002015111155b15610528576040517f983bc3ff00000000000000000000000000000000000000000000000000000000815260040160405180910390fd5b8d6105398e8e8e8e8e8e8e8e6111ca565b14610570576040517fac34823a00000000000000000000000000000000000000000000000000000000815260040160405180910390fd5b878c73ffffffffffffffffffffffffffffffffffffffff166370a08231306040518263ffffffff1660e01b81526004016105aa91906119f1565b602060405180830381865afa1580156105c7573d6000803e3d6000fd5b505050506040513d601f19601f820116820180604052508101906105eb9190611a21565b1015610623576040517ff4d678b800000000000000000000000000000000000000000000000000000000815260040160405180910390fd5b6040518061018001604052808f81526020018e81526020018d73ffffffffffffffffffffffffffffffffffffffff1681526020018c73ffffffffffffffffffffffffffffffffffffffff1681526020018b73ffffffffffffffffffffffffffffffffffffffff1681526020018a73ffffffffffffffffffffffffffffffffffffffff168152602001898152602001888152602001876000600381106106cb576106ca6119c2565b5b60200201518152602001600060ff168152602001876001600381106106f3576106f26119c2565b5b6020020151815260200187600260038110610711576107106119c2565b5b60200201518152506001600082015181600001556020820151816001015560408201518160020160006101000a81548173ffffffffffffffffffffffffffffffffffffffff021916908373ffffffffffffffffffffffffffffffffffffffff16021790555060608201518160030160006101000a81548173ffffffffffffffffffffffffffffffffffffffff021916908373ffffffffffffffffffffffffffffffffffffffff16021790555060808201518160040160006101000a81548173ffffffffffffffffffffffffffffffffffffffff021916908373ffffffffffffffffffffffffffffffffffffffff16021790555060a08201518160050160006101000a81548173ffffffffffffffffffffffffffffffffffffffff021916908373ffffffffffffffffffffffffffffffffffffffff16021790555060c0820151816006015560e0820151816007015561010082015181600801556101208201518160090160006101000a81548160ff021916908360ff16021790555061014082015181600a015561016082015181600b01559050508a73ffffffffffffffffffffffffffffffffffffffff168c73ffffffffffffffffffffffffffffffffffffffff168f7f961e6438a987eab19d9850691e56ca64f442dbb689801b0f3cfc1381c98ed15e8d8c8c60405161090793929190611a4e565b60405180910390a4831561096b5760008560000160086101000a81548160ff0219169083151502179055507fc7f505b2f371ae2175ee4913f4499e1f2633a7b5936321eed1cdaeb6115181d260016040516109629190611ade565b60405180910390a15b5050505050505050505050505050565b60606040518060400160405280600581526020017f312e302e30000000000000000000000000000000000000000000000000000000815250905090565b6109c061125b565b6001600a015480421015610a00576040517f20b5c16d00000000000000000000000000000000000000000000000000000000815260040160405180910390fd5b6000600160090160009054906101000a900460ff169050600160ff168160ff1603610a57576040517f6507689f00000000000000000000000000000000000000000000000000000000815260040160405180910390fd5b600260ff168160ff1603610a97576040517f54e3762500000000000000000000000000000000000000000000000000000000815260040160405180910390fd5b600180015483604051602001610aad9190611af9565b6040516020818303038152906040528051906020012014610afa576040517fabab6bd700000000000000000000000000000000000000000000000000000000815260040160405180910390fd5b60018060090160006101000a81548160ff021916908360ff1602179055506000600160020160009054906101000a900473ffffffffffffffffffffffffffffffffffffffff1690506000600160040160009054906101000a900473ffffffffffffffffffffffffffffffffffffffff169050600060016006015490506000600160050160009054906101000a900473ffffffffffffffffffffffffffffffffffffffff16905060006001600701549050610bd584848773ffffffffffffffffffffffffffffffffffffffff166112a19092919063ffffffff16565b8173ffffffffffffffffffffffffffffffffffffffff166108fc829081150290604051600060405180830381858888f19350505050158015610c1b573d6000803e3d6000fd5b508373ffffffffffffffffffffffffffffffffffffffff166001600001547f04eda370f8b8612fa7266d7ebbd41af9d694e19793fe9d9ff31b3ddbd99b08e185604051610c689190611b14565b60405180910390a350505050505050610c7f611320565b50565b600080600080600080600080600060016040518061018001604052908160008201548152602001600182015481526020016002820160009054906101000a900473ffffffffffffffffffffffffffffffffffffffff1673ffffffffffffffffffffffffffffffffffffffff1673ffffffffffffffffffffffffffffffffffffffff1681526020016003820160009054906101000a900473ffffffffffffffffffffffffffffffffffffffff1673ffffffffffffffffffffffffffffffffffffffff1673ffffffffffffffffffffffffffffffffffffffff1681526020016004820160009054906101000a900473ffffffffffffffffffffffffffffffffffffffff1673ffffffffffffffffffffffffffffffffffffffff1673ffffffffffffffffffffffffffffffffffffffff1681526020016005820160009054906101000a900473ffffffffffffffffffffffffffffffffffffffff1673ffffffffffffffffffffffffffffffffffffffff1673ffffffffffffffffffffffffffffffffffffffff1681526020016006820154815260200160078201548152602001600882015481526020016009820160009054906101000a900460ff1660ff1660ff168152602001600a8201548152602001600b82015481525050905080600001518160400151826060015183608001518460a001518560c001518660e0015187610120015198509850985098509850985098509850509091929394959697565b60018060000154908060010154908060020160009054906101000a900473ffffffffffffffffffffffffffffffffffffffff16908060030160009054906101000a900473ffffffffffffffffffffffffffffffffffffffff16908060040160009054906101000a900473ffffffffffffffffffffffffffffffffffffffff16908060050160009054906101000a900473ffffffffffffffffffffffffffffffffffffffff16908060060154908060070154908060080154908060090160009054906101000a900460ff169080600a01549080600b015490508c565b610f8261125b565b6001600b015480421015610fc2576040517f20b5c16d00000000000000000000000000000000000000000000000000000000815260040160405180910390fd5b6000600160090160009054906101000a900460ff169050600160ff168160ff1603611019576040517f6507689f00000000000000000000000000000000000000000000000000000000815260040160405180910390fd5b600260ff168160ff1603611059576040517f54e3762500000000000000000000000000000000000000000000000000000000815260040160405180910390fd5b6002600160090160006101000a81548160ff021916908360ff1602179055506000600160020160009054906101000a900473ffffffffffffffffffffffffffffffffffffffff1690506000600160030160009054906101000a900473ffffffffffffffffffffffffffffffffffffffff169050600060016006015490506000600160070154905061110b83838673ffffffffffffffffffffffffffffffffffffffff166112a19092919063ffffffff16565b8273ffffffffffffffffffffffffffffffffffffffff166108fc829081150290604051600060405180830381858888f19350505050158015611151573d6000803e3d6000fd5b508273ffffffffffffffffffffffffffffffffffffffff166001600001547fd8b903b45b812ecba293ee1b008b3412d7135b053b5d38969c6d0f95120233858460405161119e9190611b14565b60405180910390a35050505050506111b4611320565b565b6000806111c161132a565b90508091505090565b600088888888888888886000600381106111e7576111e66119c2565b5b602002015189600160038110611200576111ff6119c2565b5b60200201518a600260038110611219576112186119c2565b5b60200201516040516020016112379a99989796959493929190611b2f565b60405160208183030381529060405280519060200120905098975050505050505050565b600260005403611297576040517f3ee5aeb500000000000000000000000000000000000000000000000000000000815260040160405180910390fd5b6002600081905550565b61131b838473ffffffffffffffffffffffffffffffffffffffff1663a9059cbb85856040516024016112d4929190611bcb565b604051602081830303815290604052915060e01b6020820180517bffffffffffffffffffffffffffffffffffffffffffffffffffffffff8381831617835250505050611355565b505050565b6001600081905550565b60007ff0c57e16840df040f15088dc2f81fe391c3923bec73e23a9662efc9c229c6a0060001b905090565b600080602060008451602086016000885af180611378576040513d6000823e3d81fd5b3d9250600051915050600082146113935760018114156113af565b60008473ffffffffffffffffffffffffffffffffffffffff163b145b156113f157836040517f5274afe70000000000000000000000000000000000000000000000000000000081526004016113e891906119f1565b60405180910390fd5b50505050565b7f4e487b7100000000000000000000000000000000000000000000000000000000600052602160045260246000fd5b60038110611437576114366113f7565b5b50565b600081905061144882611426565b919050565b60006114588261143a565b9050919050565b6114688161144d565b82525050565b6000602082019050611483600083018461145f565b92915050565b6000604051905090565b600080fd5b6000819050919050565b6114ab81611498565b81146114b657600080fd5b50565b6000813590506114c8816114a2565b92915050565b600073ffffffffffffffffffffffffffffffffffffffff82169050919050565b60006114f9826114ce565b9050919050565b611509816114ee565b811461151457600080fd5b50565b60008135905061152681611500565b92915050565b6000819050919050565b61153f8161152c565b811461154a57600080fd5b50565b60008135905061155c81611536565b92915050565b600080fd5b6000601f19601f8301169050919050565b7f4e487b7100000000000000000000000000000000000000000000000000000000600052604160045260246000fd5b6115b082611567565b810181811067ffffffffffffffff821117156115cf576115ce611578565b5b80604052505050565b60006115e2611489565b90506115ee82826115a7565b919050565b600067ffffffffffffffff82111561160e5761160d611578565b5b602082029050919050565b600080fd5b600061163161162c846115f3565b6115d8565b9050806020840283018581111561164b5761164a611619565b5b835b818110156116745780611660888261154d565b84526020840193505060208101905061164d565b5050509392505050565b600082601f83011261169357611692611562565b5b60036116a084828561161e565b91505092915050565b60008060008060008060008060006101608a8c0312156116cc576116cb611493565b5b60006116da8c828d016114b9565b99505060206116eb8c828d016114b9565b98505060406116fc8c828d01611517565b975050606061170d8c828d01611517565b965050608061171e8c828d01611517565b95505060a061172f8c828d01611517565b94505060c06117408c828d0161154d565b93505060e06117518c828d0161154d565b9250506101006117638c828d0161167e565b9150509295985092959850929598565b600081519050919050565b600082825260208201905092915050565b60005b838110156117ad578082015181840152602081019050611792565b60008484015250505050565b60006117c482611773565b6117ce818561177e565b93506117de81856020860161178f565b6117e781611567565b840191505092915050565b6000602082019050818103600083015261180c81846117b9565b905092915050565b60006020828403121561182a57611829611493565b5b6000611838848285016114b9565b91505092915050565b61184a81611498565b82525050565b611859816114ee565b82525050565b6118688161152c565b82525050565b600060ff82169050919050565b6118848161186e565b82525050565b6000610100820190506118a0600083018b611841565b6118ad602083018a611850565b6118ba6040830189611850565b6118c76060830188611850565b6118d46080830187611850565b6118e160a083018661185f565b6118ee60c083018561185f565b6118fb60e083018461187b565b9998505050505050505050565b60006101808201905061191e600083018f611841565b61192b602083018e611841565b611938604083018d611850565b611945606083018c611850565b611952608083018b611850565b61195f60a083018a611850565b61196c60c083018961185f565b61197960e083018861185f565b61198761010083018761185f565b61199561012083018661187b565b6119a361014083018561185f565b6119b161016083018461185f565b9d9c50505050505050505050505050565b7f4e487b7100000000000000000000000000000000000000000000000000000000600052603260045260246000fd5b6000602082019050611a066000830184611850565b92915050565b600081519050611a1b81611536565b92915050565b600060208284031215611a3757611a36611493565b5b6000611a4584828501611a0c565b91505092915050565b6000606082019050611a636000830186611850565b611a70602083018561185f565b611a7d604083018461185f565b949350505050565b6000819050919050565b600067ffffffffffffffff82169050919050565b6000819050919050565b6000611ac8611ac3611abe84611a85565b611aa3565b611a8f565b9050919050565b611ad881611aad565b82525050565b6000602082019050611af36000830184611acf565b92915050565b6000602082019050611b0e6000830184611841565b92915050565b6000602082019050611b29600083018461185f565b92915050565b600061014082019050611b45600083018d611841565b611b52602083018c611850565b611b5f604083018b611850565b611b6c606083018a611850565b611b796080830189611850565b611b8660a083018861185f565b611b9360c083018761185f565b611ba060e083018661185f565b611bae61010083018561185f565b611bbc61012083018461185f565b9b9a5050505050505050505050565b6000604082019050611be06000830185611850565b611bed602083018461185f565b939250505056fea264697066735822122020a908f0a3d01b359e84d789d5ac10c4f9bdccb9473792ebcad64c14f925ec5d64736f6c634300081c0033",
  "linkReferences": {},
  "deployedLinkReferences": {}
}