{
  "_format": "hh-sol-artifact-1",
  "contractName": "HTLCEscrowFactory",
  "sourceName": "contracts/Escrow/HTLCEscrowFactory.sol",
  "abi": [
    {
      "inputs": [
        {
          "internalType": "address",
          "name": "_implementation",
          "type": "address"
        }
      ],
      "stateMutability": "nonpayable",
      "type": "constructor"
    },
    {
      "inputs": [],
      "name": "EscrowAlreadyExists",
      "type": "error"
    },
    {
      "inputs": [],
      "name": "EscrowCreationFailed",
      "type": "error"
    },
    {
      "inputs": [],
      "name": "FailedDeployment",
      "type": "error"
    },
    {
      "inputs": [
        {
          "internalType": "uint256",
          "name": "balance",
          "type": "uint256"
        },
        {
          "internalType": "uint256",
          "name": "needed",
          "type": "uint256"
        }
      ],
      "name": "InsufficientBalance",
      "type": "error"
    },
    {
      "inputs": [],
      "name": "InvalidAddress",
      "type": "error"
    },
    {
      "inputs": [],
      "name": "InvalidAmount",
      "type": "error"
    },
    {
      "inputs": [],
      "name": "InvalidTimeLocks",
      "type": "error"
    },
    {
      "inputs": [
        {
          "internalType": "address",
          "name": "owner",
          "type": "address"
        }
      ],
      "name": "OwnableInvalidOwner",
      "type": "error"
    },
    {
      "inputs": [
        {
          "internalType": "address",
          "name": "account",
          "type": "address"
        }
      ],
      "name": "OwnableUnauthorizedAccount",
      "type": "error"
    },
    {
      "inputs": [],
      "name": "ReentrancyGuardReentrantCall",
      "type": "error"
    },
    {
      "inputs": [
        {
          "internalType": "address",
          "name": "token",
          "type": "address"
        }
      ],
      "name": "SafeERC20FailedOperation",
      "type": "error"
    },
    {
      "anonymous": false,
      "inputs": [
        {
          "indexed": true,
          "internalType": "bytes32",
          "name": "orderHash",
          "type": "bytes32"
        },
        {
          "indexed": true,
          "internalType": "address",
          "name": "escrow",
          "type": "address"
        },
        {
          "indexed": true,
          "internalType": "address",
          "name": "token",
          "type": "address"
        },
        {
          "indexed": false,
          "internalType": "address",
          "name": "maker",
          "type": "address"
        },
        {
          "indexed": false,
          "internalType": "address",
          "name": "taker",
          "type": "address"
        },
        {
          "indexed": false,
          "internalType": "uint256",
          "name": "amount",
          "type": "uint256"
        },
        {
          "indexed": false,
          "internalType": "uint256",
          "name": "safetyDeposit",
          "type": "uint256"
        }
      ],
      "name": "EscrowCreated",
      "type": "event"
    },
    {
      "anonymous": false,
      "inputs": [
        {
          "indexed": true,
          "internalType": "address",
          "name": "oldImplementation",
          "type": "address"
        },
        {
          "indexed": true,
          "internalType": "address",
          "name": "newImplementation",
          "type": "address"
        }
      ],
      "name": "ImplementationUpdated",
      "type": "event"
    },
    {
      "anonymous": false,
      "inputs": [
        {
          "indexed": true,
          "internalType": "address",
          "name": "previousOwner",
          "type": "address"
        },
        {
          "indexed": true,
          "internalType": "address",
          "name": "newOwner",
          "type": "address"
        }
      ],
      "name": "OwnershipTransferred",
      "type": "event"
    },
    {
      "inputs": [],
      "name": "IMPLEMENTATION",
      "outputs": [
        {
          "internalType": "address",
          "name": "",
          "type": "address"
        }
      ],
      "stateMutability": "view",
      "type": "function"
    },
    {
      "inputs": [
        {
          "internalType": "bytes32",
          "name": "_orderHash",
          "type": "bytes32"
        },
        {
          "internalType": "bytes32",
          "name": "_hashLock",
          "type": "bytes32"
        },
        {
          "internalType": "address",
          "name": "_token",
          "type": "address"
        },
        {
          "internalType": "address",
          "name": "_maker",
          "type": "address"
        },
        {
          "internalType": "address",
          "name": "_taker",
          "type": "address"
        },
        {
          "internalType": "address",
          "name": "_resolver",
          "type": "address"
        },
        {
          "internalType": "uint256",
          "name": "_amount",
          "type": "uint256"
        },
        {
          "internalType": "uint256",
          "name": "_safetyDeposit",
          "type": "uint256"
        },
        {
          "internalType": "uint256[3]",
          "name": "_timeLocks",
          "type": "uint256[3]"
        }
      ],
      "name": "createEscrow",
      "outputs": [
        {
          "internalType": "address",
          "name": "escrow",
          "type": "address"
        }
      ],
      "stateMutability": "payable",
      "type": "function"
    },
    {
      "inputs": [
        {
          "internalType": "bytes32",
          "name": "_orderHash",
          "type": "bytes32"
        }
      ],
      "name": "escrowExists",
      "outputs": [
        {
          "internalType": "bool",
          "name": "",
          "type": "bool"
        }
      ],
      "stateMutability": "view",
      "type": "function"
    },
    {
      "inputs": [
        {
          "internalType": "bytes32",
          "name": "_orderHash",
          "type": "bytes32"
        }
      ],
      "name": "getEscrow",
      "outputs": [
        {
          "internalType": "address",
          "name": "",
          "type": "address"
        }
      ],
      "stateMutability": "view",
      "type": "function"
    },
    {
      "inputs": [],
      "name": "getImplementation",
      "outputs": [
        {
          "internalType": "address",
          "name": "",
          "type": "address"
        }
      ],
      "stateMutability": "view",
      "type": "function"
    },
    {
      "inputs": [],
      "name": "owner",
      "outputs": [
        {
          "internalType": "address",
          "name": "",
          "type": "address"
        }
      ],
      "stateMutability": "view",
      "type": "function"
    },
    {
      "inputs": [],
      "name": "renounceOwnership",
      "outputs": [],
      "stateMutability": "nonpayable",
      "type": "function"
    },
    {
      "inputs": [
        {
          "internalType": "address",
          "name": "newOwner",
          "type": "address"
        }
      ],
      "name": "transferOwnership",
      "outputs": [],
      "stateMutability": "nonpayable",
      "type": "function"
    }
  ],
  "bytecode": "0x60a060405234801561001057600080fd5b506040516115d93803806115d983398181016040528101906100329190610220565b336001600081905550600073ffffffffffffffffffffffffffffffffffffffff168173ffffffffffffffffffffffffffffffffffffffff16036100ad5760006040517f1e4fbdf70000000000000000000000000000000000000000000000000000000081526004016100a4919061025c565b60405180910390fd5b6100bc816100f760201b60201c565b508073ffffffffffffffffffffffffffffffffffffffff1660808173ffffffffffffffffffffffffffffffffffffffff168152505050610277565b6000600160009054906101000a900473ffffffffffffffffffffffffffffffffffffffff16905081600160006101000a81548173ffffffffffffffffffffffffffffffffffffffff021916908373ffffffffffffffffffffffffffffffffffffffff1602179055508173ffffffffffffffffffffffffffffffffffffffff168173ffffffffffffffffffffffffffffffffffffffff167f8be0079c531659141344cd1fd0a4f28419497f9722a3daafe3b4186f6b6457e060405160405180910390a35050565b600080fd5b600073ffffffffffffffffffffffffffffffffffffffff82169050919050565b60006101ed826101c2565b9050919050565b6101fd816101e2565b811461020857600080fd5b50565b60008151905061021a816101f4565b92915050565b600060208284031215610236576102356101bd565b5b60006102448482850161020b565b91505092915050565b610256816101e2565b82525050565b6000602082019050610271600083018461024d565b92915050565b6080516113246102b5600039600081816101ed0152818161022b0152818161048b015281816104f80152818161074b015261077601526113246000f3fe60806040526004361061007b5760003560e01c80639bf0b0061161004e5780639bf0b0061461012a578063aaf10f421461015a578063f023b81114610185578063f2fde38b146101c25761007b565b80633a4741bd14610080578063715018a6146100ab5780637835ba33146100c25780638da5cb5b146100ff575b600080fd5b34801561008c57600080fd5b506100956101eb565b6040516100a29190610cca565b60405180910390f35b3480156100b757600080fd5b506100c061020f565b005b3480156100ce57600080fd5b506100e960048036038101906100e49190610d2a565b610223565b6040516100f69190610d72565b60405180910390f35b34801561010b57600080fd5b50610114610264565b6040516101219190610cca565b60405180910390f35b610144600480360381019061013f9190610f36565b61028e565b6040516101519190610cca565b60405180910390f35b34801561016657600080fd5b5061016f610747565b60405161017c9190610cca565b60405180910390f35b34801561019157600080fd5b506101ac60048036038101906101a79190610d2a565b61076f565b6040516101b99190610cca565b60405180910390f35b3480156101ce57600080fd5b506101e960048036038101906101e49190611000565b6107a3565b005b7f000000000000000000000000000000000000000000000000000000000000000081565b610217610829565b61022160006108b0565b565b6000806102517f00000000000000000000000000000000000000000000000000000000000000008430610976565b905061025c816109ed565b915050919050565b6000600160009054906101000a900473ffffffffffffffffffffffffffffffffffffffff16905090565b6000610298610a00565b600073ffffffffffffffffffffffffffffffffffffffff168873ffffffffffffffffffffffffffffffffffffffff1614806102ff5750600073ffffffffffffffffffffffffffffffffffffffff168773ffffffffffffffffffffffffffffffffffffffff16145b806103365750600073ffffffffffffffffffffffffffffffffffffffff168673ffffffffffffffffffffffffffffffffffffffff16145b8061036d5750600073ffffffffffffffffffffffffffffffffffffffff168573ffffffffffffffffffffffffffffffffffffffff16145b156103a4576040517fe6c4247b00000000000000000000000000000000000000000000000000000000815260040160405180910390fd5b600084036103de576040517f2c5211c600000000000000000000000000000000000000000000000000000000815260040160405180910390fd5b816000600381106103f2576103f161102d565b5b60200201518260016003811061040b5761040a61102d565b5b602002015111158061044d57508160006003811061042c5761042b61102d565b5b6020020151826002600381106104455761044461102d565b5b602002015111155b15610484576040517f983bc3ff00000000000000000000000000000000000000000000000000000000815260040160405180910390fd5b60006104b17f00000000000000000000000000000000000000000000000000000000000000008c30610976565b90506104bc816109ed565b156104f3576040517fed77877900000000000000000000000000000000000000000000000000000000815260040160405180910390fd5b61051d7f00000000000000000000000000000000000000000000000000000000000000008c610a46565b9150600073ffffffffffffffffffffffffffffffffffffffff168273ffffffffffffffffffffffffffffffffffffffff1603610585576040517faaa42ce700000000000000000000000000000000000000000000000000000000815260040160405180910390fd5b60008973ffffffffffffffffffffffffffffffffffffffff166370a08231846040518263ffffffff1660e01b81526004016105c09190610cca565b602060405180830381865afa1580156105dd573d6000803e3d6000fd5b505050506040513d601f19601f820116820180604052508101906106019190611071565b905085811015610648576000818761061991906110cd565b905061064684828d73ffffffffffffffffffffffffffffffffffffffff16610a5c9092919063ffffffff16565b505b8273ffffffffffffffffffffffffffffffffffffffff166342d9fdd9348e8e8e8e8e8e8e8e8e6040518b63ffffffff1660e01b8152600401610692999897969594939291906111ca565b6000604051808303818588803b1580156106ab57600080fd5b505af11580156106bf573d6000803e3d6000fd5b50505050508973ffffffffffffffffffffffffffffffffffffffff168373ffffffffffffffffffffffffffffffffffffffff168d7f893895ff42f2e69f0bb5c54a03654f51a36e15623afd39c49fca7f5ab66c46538c8c8b8b6040516107289493929190611257565b60405180910390a4505061073a610adb565b9998505050505050505050565b60007f0000000000000000000000000000000000000000000000000000000000000000905090565b600061079c7f00000000000000000000000000000000000000000000000000000000000000008330610976565b9050919050565b6107ab610829565b600073ffffffffffffffffffffffffffffffffffffffff168173ffffffffffffffffffffffffffffffffffffffff160361081d5760006040517f1e4fbdf70000000000000000000000000000000000000000000000000000000081526004016108149190610cca565b60405180910390fd5b610826816108b0565b50565b610831610ae5565b73ffffffffffffffffffffffffffffffffffffffff1661084f610264565b73ffffffffffffffffffffffffffffffffffffffff16146108ae57610872610ae5565b6040517f118cdaa70000000000000000000000000000000000000000000000000000000081526004016108a59190610cca565b60405180910390fd5b565b6000600160009054906101000a900473ffffffffffffffffffffffffffffffffffffffff16905081600160006101000a81548173ffffffffffffffffffffffffffffffffffffffff021916908373ffffffffffffffffffffffffffffffffffffffff1602179055508173ffffffffffffffffffffffffffffffffffffffff168173ffffffffffffffffffffffffffffffffffffffff167f8be0079c531659141344cd1fd0a4f28419497f9722a3daafe3b4186f6b6457e060405160405180910390a35050565b60006040518260388201526f5af43d82803e903d91602b57fd5bf3ff6024820152846014820152733d602d80600a3d3981f3363d3d373d3d3d363d7381528360588201526037600c820120607882015273ffffffffffffffffffffffffffffffffffffffff60556043830120169150509392505050565b600080823b905060008111915050919050565b600260005403610a3c576040517f3ee5aeb500000000000000000000000000000000000000000000000000000000815260040160405180910390fd5b6002600081905550565b6000610a5483836000610aed565b905092915050565b610ad6838473ffffffffffffffffffffffffffffffffffffffff1663a9059cbb8585604051602401610a8f92919061129c565b604051602081830303815290604052915060e01b6020820180517bffffffffffffffffffffffffffffffffffffffffffffffffffffffff8381831617835250505050610be7565b505050565b6001600081905550565b600033905090565b600081471015610b365747826040517fcf479181000000000000000000000000000000000000000000000000000000008152600401610b2d9291906112c5565b60405180910390fd5b763d602d80600a3d3981f3363d3d373d3d3d363d730000008460601b60e81c176000526e5af43d82803e903d91602b57fd5bf38460781b17602052826037600984f59050600073ffffffffffffffffffffffffffffffffffffffff168173ffffffffffffffffffffffffffffffffffffffff1603610be0576040517fb06ebf3d00000000000000000000000000000000000000000000000000000000815260040160405180910390fd5b9392505050565b600080602060008451602086016000885af180610c0a576040513d6000823e3d81fd5b3d925060005191505060008214610c25576001811415610c41565b60008473ffffffffffffffffffffffffffffffffffffffff163b145b15610c8357836040517f5274afe7000000000000000000000000000000000000000000000000000000008152600401610c7a9190610cca565b60405180910390fd5b50505050565b600073ffffffffffffffffffffffffffffffffffffffff82169050919050565b6000610cb482610c89565b9050919050565b610cc481610ca9565b82525050565b6000602082019050610cdf6000830184610cbb565b92915050565b6000604051905090565b600080fd5b6000819050919050565b610d0781610cf4565b8114610d1257600080fd5b50565b600081359050610d2481610cfe565b92915050565b600060208284031215610d4057610d3f610cef565b5b6000610d4e84828501610d15565b91505092915050565b60008115159050919050565b610d6c81610d57565b82525050565b6000602082019050610d876000830184610d63565b92915050565b610d9681610ca9565b8114610da157600080fd5b50565b600081359050610db381610d8d565b92915050565b6000819050919050565b610dcc81610db9565b8114610dd757600080fd5b50565b600081359050610de981610dc3565b92915050565b600080fd5b6000601f19601f8301169050919050565b7f4e487b7100000000000000000000000000000000000000000000000000000000600052604160045260246000fd5b610e3d82610df4565b810181811067ffffffffffffffff82111715610e5c57610e5b610e05565b5b80604052505050565b6000610e6f610ce5565b9050610e7b8282610e34565b919050565b600067ffffffffffffffff821115610e9b57610e9a610e05565b5b602082029050919050565b600080fd5b6000610ebe610eb984610e80565b610e65565b90508060208402830185811115610ed857610ed7610ea6565b5b835b81811015610f015780610eed8882610dda565b845260208401935050602081019050610eda565b5050509392505050565b600082601f830112610f2057610f1f610def565b5b6003610f2d848285610eab565b91505092915050565b60008060008060008060008060006101608a8c031215610f5957610f58610cef565b5b6000610f678c828d01610d15565b9950506020610f788c828d01610d15565b9850506040610f898c828d01610da4565b9750506060610f9a8c828d01610da4565b9650506080610fab8c828d01610da4565b95505060a0610fbc8c828d01610da4565b94505060c0610fcd8c828d01610dda565b93505060e0610fde8c828d01610dda565b925050610100610ff08c828d01610f0b565b9150509295985092959850929598565b60006020828403121561101657611015610cef565b5b600061102484828501610da4565b91505092915050565b7f4e487b7100000000000000000000000000000000000000000000000000000000600052603260045260246000fd5b60008151905061106b81610dc3565b92915050565b60006020828403121561108757611086610cef565b5b60006110958482850161105c565b91505092915050565b7f4e487b7100000000000000000000000000000000000000000000000000000000600052601160045260246000fd5b60006110d882610db9565b91506110e383610db9565b92508282039050818111156110fb576110fa61109e565b5b92915050565b61110a81610cf4565b82525050565b61111981610db9565b82525050565b600060039050919050565b600081905092915050565b6000819050919050565b61114881610db9565b82525050565b600061115a838361113f565b60208301905092915050565b6000602082019050919050565b61117c8161111f565b611186818461112a565b925061119182611135565b8060005b838110156111c25781516111a9878261114e565b96506111b483611166565b925050600181019050611195565b505050505050565b6000610160820190506111e0600083018c611101565b6111ed602083018b611101565b6111fa604083018a610cbb565b6112076060830189610cbb565b6112146080830188610cbb565b61122160a0830187610cbb565b61122e60c0830186611110565b61123b60e0830185611110565b611249610100830184611173565b9a9950505050505050505050565b600060808201905061126c6000830187610cbb565b6112796020830186610cbb565b6112866040830185611110565b6112936060830184611110565b95945050505050565b60006040820190506112b16000830185610cbb565b6112be6020830184611110565b9392505050565b60006040820190506112da6000830185611110565b6112e76020830184611110565b939250505056fea2646970667358221220a6f320ece4567a8798d71dd4d115948d74887cc30f4686ccc0a929f87344c95464736f6c634300081c0033",
  "linkReferences": {},
  "deployedLinkReferences": {}
}